:020000040000FA
:040000000000AF2825
:040004000034003490
:0800080020009110701CA028DB
:10001000701989283308B6073208B53D3108B43D58
:1000200003181D28F01D2A28B41F2A28BB01BA0175
:10003000FF30BD00BC00F0112A28B401B501B601A3
:10004000F01870153F08BD023E08BC3B031C342865
:10005000031934282A080B00072A142AEA29DD2963
:10006000F829D829D329212AC501C601BC0170105D
:10007000F501F6013C0803104618F507F50CF60CDF
:10008000C618F507F50CF60C4619F507F50CF60C35
:10009000C619F507F50CF60C461AF507F50CF60C23
:1000A000C61AF507F50CF60C461BF507F50CF60C11
:1000B000C61BF507F50CF60C03104518F507F50CF3
:1000C000F60C0310C518F507F50CF60C03104519CE
:1000D000F507F50CF60C0310C519F507F50CF60C31
:1000E0000310451AF507F50CF60C0310C51AF507B1
:1000F000F50CF60C0310451BF507F50CF60C031078
:10010000C51BF507F50CF60C3B08F6073A08F50792
:1001100097283908B6073808B53D3708B43D031CA1
:100120009528B401B501B6017011F601F501290059
:10013000F4017635750D9C00740D9D0076359B009D
:10014000090021009D006430F1000000F10BA5289A
:100150009D149D18A9281C08F30020000800210008
:100160002F308C008B170B179114240008308C0053
:10017000230027308C00210060309E00850187011C
:10018000200091109D0100309F00FF309E003D0037
:100190001D309400290081309E0060309F0098013E
:1001A00099019A019D019C019B012000F001F2013F
:1001B000AB01AC01AD01AE01A001A101A201A301FF
:1001C000A401A501A601A701AA01B601B501B401C8
:1001D000B301B201B101B901B801B7011F152E0871
:1001E0002D052C05AB062E082D05AC062E08AD06F8
:1001F000AE090C082F06AB05AC05AD05AE05FF3A00
:100200002B042C042D042E04FF3AAF06B000B01DC1
:100210002329AF1923297011B401B501B601FF30AC
:10022000BC00BD002A080639031D1F297608BB0043
:10023000BD027508BA00BC3B7014F0152329BB0140
:10024000BA017014F011F20A720803390B002B295D
:1002500051297629A0290130A120A800A90124084C
:10026000A9022008A83B0308013A8300A80CA90CA6
:10027000A837A90CA837A90CA837A90C2908A407E6
:100280002808A03D2008840085018435850D65304F
:1002900084078230853DB1011200B2001200B30024
:1002A000C4290530A120A800A9012508A902210818
:1002B000A83B0308013A8300A80CA90CA837A90C95
:1002C000A837A90CA837A90C2908A5072808A13D1B
:1002D0002108043EE039F1002108E0397106031DD0
:1002E000C429210E0E39AA00AA36C4290930A1203A
:1002F000A800A9012608A9022208A83B0308013A80
:100300008300A80CA90CA837A90CA837A90CA837FA
:10031000A90C2908A6072808A23D7530840084305E
:100320008500223584020030A21B0130853BB701D5
:100330001200B8001200B900F014B81BF010C42964
:100340001530A120A800A9012708A9022308A83B6D
:100350000308013A8300A80CA90CA837A90CA837F8
:10036000A90CA837A90C2908A7072808A33D2336FC
:100370007E3984008501753084078430853D120004
:10038000BE001200BF00C4294F304D304D30413007
:100390004E3049305030413044304D304530483097
:1003A00055304D30EF283408C5003508C6003828D0
:1003B0003409C5003509C600382887013408FE39DC
:1003C0008600F93086078630873D340C350CC40032
:1003D0003022382887013409FE398600F930860733
:1003E0008630873D340C350CFF3AC4003022382863
:1003F00087013408FE398600F93086078630873D4C
:10040000340C350CC4003022C509C60938288701D0
:100410003408FE398600F53086078430873D340C79
:10042000350CC4003022382887013408FE39860094
:10043000F73086078530873D340C350CC4003022F8
:10044000382887013408FE398600F5308607843065
:10045000873D340C350CC4003022C509C609382844
:100460001600C0001600C1001600C2001600C3002E
:100470004008C5004108C6004108441A4308C607A1
:100480004008441A4208C53DC50CC60C4108C41AB0
:100490004308C6074008C41A4208C53DC50CC60C2F
:1004A0004108441B4308C6074008441B4208C53D99
:1004B000C50CC60C4108C41B4308C6074008C41B32
:1004C0004208C53DC50CC60C08000034D7340034C2
:1004D000DA340034DD340034E1340034E434003400
:1004E000E7340034EB340034EE340034F2340034BA
:1004F000F6340034F9340034FD340134013401346D
:1005000005340134093401340D340134113401341B
:1005100015340134193401341D34013422340134CA
:10052000263401342A3401342F3401343334013475
:10053000383401343D34013442340134463401341A
:100540004B34013450340134553401345A340134BD
:1005500060340134653401346A3401347034013458
:10056000753401347B3401348134013487340134EF
:100570008C34013492340134983401349F34013482
:10058000A5340134AB340134B2340134B83401340D
:10059000BF340134C5340134CC340134D334013494
:1005A000DA340134E1340134E9340134F034013413
:1005B000F8340134FF340234073402340F34023487
:1005C000173402341F340234273402342F340234F7
:1005D0003734023440340234493402345234023461
:1005E0005A340234643402346D34023476340234C2
:1005F0008034023489340234933402349D3402341A
:10060000A7340234B1340234BC340234C634023468
:10061000D1340234DC340234E7340234F2340234AC
:10062000FD340334093403341534033420340334E3
:100630002C34033439340334453403345234033412
:100640005F3403346B340334793403348634033435
:1006500094340334A1340334AF340334BE3403344C
:10066000CC340334DB340334EA340334F934043453
:10067000083404341834043427340434373404344C
:100680004834043458340434693404347A34043437
:100690008B3404349D340434AE340434C034043414
:1006A000D3340434E5340434F83405340B340534DD
:1006B0001F34053433340534473405345B34053492
:1006C00070340534853405349A340534AF34053438
:1006D000C5340534DC340534F234063409340634C8
:1006E0002034063438340634503406346834063442
:1006F000813406349A340634B4340634CD340634A6
:10070000E8340734023407341D34073439340734ED
:1007100055340734713407348E340734AB3407341E
:10072000C8340734E6340834053408342434083433
:10073000433408346334083483340834A43408342C
:10074000C5340834E73409340A3409342C34093404
:10075000503409347434093498340934BD340934BC
:10076000E3340A3409340A3430340A3457340A344E
:100770007F340A34A7340A34D0340A34FA340B34C0
:1007800024340B344F340B347B340B34A7340B3408
:10079000D4340C3402340C3430340C345F340C3424
:1007A0008F340C34BF340C34F0340D3422340D3417
:1007B00055340D3488340D34BC340D34F1340E34DA
:1007C00027340E345E340E3495340E34CD340F3469
:1007D00006340F3440340F347B340F34B7340F34C5
:1007E000F3341034313410346F341034AF341034E7
:1007F000EF3411343034113473341134B6341134CD
:10080000FA3412343F34123486341234CD34133473
:10081000163413345F341334AA341334F6341434D6
:100820004334143491341434E034153431341534F1
:1008300082341534D53416342A3416347F341634C1
:10084000D63417342E34173487341734E23418343E
:100850003E3418349B341834FA3419345B34193468
:10086000BC341A3420341A3484341A34EB341B3434
:1008700052341B34BC341C3427341C3493341D34A0
:1008800001341D3471341D34E3341E3456341E34A7
:10089000CB341F3442341F34BA342034353420343E
:1008A000B13421342F342134AF3422343134223462
:1008B000B53423343A342334C23424344C3424340D
:1008C000D834253466342534F6348034003480340A
:1008D0000034803400348034003480340034803478
:1008E00000348034003480340034FF34FF34FF346B
:1008F000FF34FF34FF34FF34FF348034003480345D
:100900000034803400348034003455345534553448
:10091000553455345534553455344034003440340E
:10092000003440340034403400343334333433340E
:10093000333433343334333433342A34AB342A3419
:10094000AB342A34AB342A34AB34243493342434D7
:1009500093342434933424349334203400342034B6
:10096000003420340034203400341C3472341C34FD
:1009700072341C3472341C34723419349A3419347D
:100980009A3419349A3419349A3417344634173453
:100990004634153456341334B2341334B23412346A
:1009A0004A341134113411341134103400340F34FA
:1009B0000F340E3439340D347A340C34CD340C34D5
:1009C00031340B34A3340B3422340A343E3409342A
:1009D000D93409347C340834D434083489340834A4
:1009E00000340734883407341D34003400340634AE
:1009F00048340C3490341234D534193418341F343C
:100A00005634253490342B34C4343134F1343834F2
:100A100017343E343434443447344A345034503438
:100A20004D3456343E345C3422346134F734673408
:100A3000BD346D347434733419347834AD347E3449
:100A40002E3483349C348834F5348E3439349334E2
:100A5000683498347F349D347F34A2346734A734AB
:100A60003634AB34EB34B0348534B5340434B93473
:100A70006834BD34AE34C134D834C534E334C934F9
:100A8000D034CD349E34D1344C34D434DA34D834E8
:100A90004734DB349334DE34BD34E134C534E434DC
:100AA000A934E7346B34EA340934EC348234EE345C
:100AB000D834F1340834F3341334F434F934F634DC
:100AC000B934F8345334F934C734FB341434FC34B7
:100AD0003A34FD343A34FE341234FE34C334FF3435
:100AE0004D34FF34B034FF34EB34FF34FF34FF3483
:100AF000EB34FF34B034FF344D34FE34C334FE34B1
:100B00001234FD343A34FC343A34FB341434F934BE
:100B1000C734F8345334F634B934F434F934F33494
:100B20001334F1340834EE34D834EC348234EA34FB
:100B30000934E7346B34E434A934E134C534DE34A9
:100B4000BD34DB349334D8344734D434DA34D1343C
:100B50004C34CD349E34C934D034C534E334C1343C
:100B6000D834BD34AE34B9346834B5340434B03418
:100B70008534AB34EB34A7343634A23467349D3437
:100B80007F3498347F34933468348E3439348834E5
:100B9000F53483349C347E342E347834AD3473345D
:100BA00019346D3474346734BD346134F7345C34D3
:100BB000223456343E3450344D344A345034443464
:100BC00047343E343434383417343134F1342B3430
:100BD000C434253490341F34563419341834123444
:100BE000D5340C34903406344834003400340034A6
:100BF00000340034273400349E340134633402342A
:100C000076340334D6340534833407347B340934E2
:100C1000BE340C344A340F341D3412343634153497
:100C20009234193430341D340E34213428342534B0
:100C30007D342A340A342E34CC343334C03438343E
:100C4000E3343E3432344334A934493446344F34E7
:100C500004345434E0345A34D8346034E6346734DD
:100C600007346D343834733474347934B8348034A0
:100C70000034863447348C348B349234C7349834FF
:100C8000F8349F341934A5342734AB341F34B034CE
:100C9000FB34B634B934BC345634C134CD34C734E3
:100CA0001C34CC343F34D1343334D534F534DA34D5
:100CB0008234DE34D734E234F134E634CF34EA34EB
:100CC0006D34ED34C934F034E234F334B534F634F1
:100CD0004134F8348434FA347C34FC342934FD341F
:100CE0008934FE349C34FF346134FF34D834FF340B
:100CF000FF34FF34D834FF346134FE349C34FD3487
:100D00008934FC342934FA347C34F8348434F634AD
:100D10004134F334B534F034E234ED34C934EA34D8
:100D20006D34E634CF34E234F134DE34D734DA349F
:100D30008234D534F534D1343334CC343F34C734F1
:100D40001C34C134CD34BC345634B634B934B03428
:100D5000FB34AB341F34A53427349F341934983412
:100D6000F8349234C7348C348B348634473480342E
:100D700000347934B834733474346D3438346734AF
:100D800007346034E6345A34D8345434E0344F34C1
:100D90000434493446344334A9343E34323438348C
:100DA000E3343334C0342E34CC342A340A3425347A
:100DB0007D34213428341D340E3419343034153444
:100DC0009234123436340F341D340C344A3409341E
:100DD000BE3407347B34053483340334D6340234D0
:100DE00076340134633400349E34003427340034C4
:100DF0000034003400340034003400340034003453
:100E00000034003401340034033400340634003438
:100E10000A3400340F340034163400341F340034E4
:100E2000293400343534003444340034553400342B
:100E3000693400347F34003499340034B6340034DB
:100E4000D6340034F9340134213401344C340134C3
:100E50007C340134AF340134E834023425340234B4
:100E600067340234AD340234FA3403344B3403347F
:100E7000A2340334FF34043462340434CC340534F3
:100E80003B340534B13406342E340634B2340734DE
:100E90003D340734CF340834693409340B34093411
:100EA000B4340A3465340B341F340B34E1340C345D
:100EB000AC340D347F340E345C340F34423410348F
:100EC00031341134293412342C341334383414347A
:100ED0004F3415346F3416349B341734D1341934ED
:100EE00011341A345D341B34B4341D3417341E34B9
:100EF00085341F34FF3421348534233417342434AB
:100F0000B63426346134283419342934DE342B3491
:100F1000B0342D348F342F347C3431347634333440
:100F20007F34353495343734BA343934ED343C3485
:100F30002E343E347F344034DF3443344D34453432
:100F4000CB34483459344A34F6344D34A434503414
:100F5000613453342F3456340D345834FC345B34FC
:100F6000FC345F340D3462342F34653462346834B9
:100F7000A8346B34FF346F3468347234E33476341D
:100F800070347A3411347D34C334813489348534F7
:100F9000623489344E348D344E3491346234953415
:100FA00089349934C4349E341434A2347834A63449
:100FB000F134AB347E34B0342134B434D834B93461
:100FC000A534BE348834C3348034C8348F34CD342F
:100FD000B334D234EE34D8343F34DD34A734E33480
:100FE0002634E834BC34EE346934F4342D34FA3425
:060FF0000934FF34FD345A
:020000040001F9
:02000E008C174D
:02001000322795
:02001200FF1FCE
:02001400FF3FAC
:00000001FF
